{
  "contractName": "Polling",
  "abi": [
    {
      "inputs": [
        {
          "internalType": "uint256",
          "name": "",
          "type": "uint256"
        }
      ],
      "name": "polls",
      "outputs": [
        {
          "internalType": "string",
          "name": "question",
          "type": "string"
        }
      ],
      "stateMutability": "view",
      "type": "function",
      "constant": true
    },
    {
      "inputs": [
        {
          "internalType": "string",
          "name": "question",
          "type": "string"
        },
        {
          "internalType": "string[]",
          "name": "choiceNames",
          "type": "string[]"
        }
      ],
      "name": "createPoll",
      "outputs": [],
      "stateMutability": "nonpayable",
      "type": "function"
    },
    {
      "inputs": [
        {
          "internalType": "uint256",
          "name": "pollIndex",
          "type": "uint256"
        },
        {
          "internalType": "uint256",
          "name": "choiceIndex",
          "type": "uint256"
        }
      ],
      "name": "vote",
      "outputs": [],
      "stateMutability": "nonpayable",
      "type": "function"
    },
    {
      "inputs": [
        {
          "internalType": "uint256",
          "name": "pollIndex",
          "type": "uint256"
        }
      ],
      "name": "getPoll",
      "outputs": [
        {
          "internalType": "string",
          "name": "question",
          "type": "string"
        },
        {
          "internalType": "string[]",
          "name": "choiceNames",
          "type": "string[]"
        },
        {
          "internalType": "uint256[]",
          "name": "voteCounts",
          "type": "uint256[]"
        }
      ],
      "stateMutability": "view",
      "type": "function",
      "constant": true
    }
  ],
  "bytecode": "0x608060405234801561001057600080fd5b50610fa1806100206000396000f3fe608060405234801561001057600080fd5b506004361061004c5760003560e01c80631a8cbcaa146100515780637e3d71c314610083578063ac2f00741461009f578063b384abef146100cf575b600080fd5b61006b600480360381019061006691906107bc565b6100eb565b60405161007a93929190610a4c565b60405180910390f35b61009d60048036038101906100989190610cb3565b610399565b005b6100b960048036038101906100b491906107bc565b610480565b6040516100c69190610d2b565b60405180910390f35b6100e960048036038101906100e49190610d4d565b610536565b005b6060806060600080858154811061010557610104610d8d565b5b90600052602060002090600302019050806001018054905067ffffffffffffffff81111561013657610135610aa2565b5b60405190808252806020026020018201604052801561016957816020015b60608152602001906001900390816101545790505b509250806001018054905067ffffffffffffffff81111561018d5761018c610aa2565b5b6040519080825280602002602001820160405280156101bb5781602001602082028036833780820191505090505b50915060005b81600101805490508110156102f8578160010181815481106101e6576101e5610d8d565b5b9060005260206000209060020201600001805461020290610deb565b80601f016020809104026020016040519081016040528092919081815260200182805461022e90610deb565b801561027b5780601f106102505761010080835404028352916020019161027b565b820191906000526020600020905b81548152906001019060200180831161025e57829003601f168201915b505050505084828151811061029357610292610d8d565b5b60200260200101819052508160010181815481106102b4576102b3610d8d565b5b9060005260206000209060020201600101548382815181106102d9576102d8610d8d565b5b60200260200101818152505080806102f090610e4b565b9150506101c1565b5080600001838382805461030b90610deb565b80601f016020809104026020016040519081016040528092919081815260200182805461033790610deb565b80156103845780601f1061035957610100808354040283529160200191610384565b820191906000526020600020905b81548152906001019060200180831161036757829003601f168201915b50505050509250935093509350509193909250565b6000806001816001815401808255809150500390600052602060002090600302019050828160000190805190602001906103d49291906106cf565b5060005b825181101561047a5781600101604051806040016040528085848151811061040357610402610d8d565b5b6020026020010151815260200160008152509080600181540180825580915050600190039060005260206000209060020201600090919091909150600082015181600001908051906020019061045a9291906106cf565b50602082015181600101555050808061047290610e4b565b9150506103d8565b50505050565b6000818154811061049057600080fd5b90600052602060002090600302016000915090508060000180546104b390610deb565b80601f01602080910402602001604051908101604052809291908181526020018280546104df90610deb565b801561052c5780601f106105015761010080835404028352916020019161052c565b820191906000526020600020905b81548152906001019060200180831161050f57829003601f168201915b5050505050905081565b600080838154811061054b5761054a610d8d565b5b906000526020600020906003020190508060020160003373ffffffffffffffffffffffffffffffffffffffff1673ffffffffffffffffffffffffffffffffffffffff16815260200190815260200160002060009054906101000a900460ff16156105ea576040517f08c379a00000000000000000000000000000000000000000000000000000000081526004016105e190610edf565b60405180910390fd5b80600101805490508210610633576040517f08c379a000000000000000000000000000000000000000000000000000000000815260040161062a90610f4b565b60405180910390fd5b80600101828154811061064957610648610d8d565b5b9060005260206000209060020201600101600081548092919061066b90610e4b565b919050555060018160020160003373ffffffffffffffffffffffffffffffffffffffff1673ffffffffffffffffffffffffffffffffffffffff16815260200190815260200160002060006101000a81548160ff021916908315150217905550505050565b8280546106db90610deb565b90600052602060002090601f0160209004810192826106fd5760008555610744565b82601f1061071657805160ff1916838001178555610744565b82800160010185558215610744579182015b82811115610743578251825591602001919060010190610728565b5b5090506107519190610755565b5090565b5b8082111561076e576000816000905550600101610756565b5090565b6000604051905090565b600080fd5b600080fd5b6000819050919050565b61079981610786565b81146107a457600080fd5b50565b6000813590506107b681610790565b92915050565b6000602082840312156107d2576107d161077c565b5b60006107e0848285016107a7565b91505092915050565b600081519050919050565b600082825260208201905092915050565b60005b83811015610823578082015181840152602081019050610808565b83811115610832576000848401525b50505050565b6000601f19601f8301169050919050565b6000610854826107e9565b61085e81856107f4565b935061086e818560208601610805565b61087781610838565b840191505092915050565b600081519050919050565b600082825260208201905092915050565b6000819050602082019050919050565b600082825260208201905092915050565b60006108ca826107e9565b6108d481856108ae565b93506108e4818560208601610805565b6108ed81610838565b840191505092915050565b600061090483836108bf565b905092915050565b6000602082019050919050565b600061092482610882565b61092e818561088d565b9350836020820285016109408561089e565b8060005b8581101561097c578484038952815161095d85826108f8565b94506109688361090c565b925060208a01995050600181019050610944565b50829750879550505050505092915050565b600081519050919050565b600082825260208201905092915050565b6000819050602082019050919050565b6109c381610786565b82525050565b60006109d583836109ba565b60208301905092915050565b6000602082019050919050565b60006109f98261098e565b610a038185610999565b9350610a0e836109aa565b8060005b83811015610a3f578151610a2688826109c9565b9750610a31836109e1565b925050600181019050610a12565b5085935050505092915050565b60006060820190508181036000830152610a668186610849565b90508181036020830152610a7a8185610919565b90508181036040830152610a8e81846109ee565b9050949350505050565b600080fd5b600080fd5b7f4e487b7100000000000000000000000000000000000000000000000000000000600052604160045260246000fd5b610ada82610838565b810181811067ffffffffffffffff82111715610af957610af8610aa2565b5b80604052505050565b6000610b0c610772565b9050610b188282610ad1565b919050565b600067ffffffffffffffff821115610b3857610b37610aa2565b5b610b4182610838565b9050602081019050919050565b82818337600083830152505050565b6000610b70610b6b84610b1d565b610b02565b905082815260208101848484011115610b8c57610b8b610a9d565b5b610b97848285610b4e565b509392505050565b600082601f830112610bb457610bb3610a98565b5b8135610bc4848260208601610b5d565b91505092915050565b600067ffffffffffffffff821115610be857610be7610aa2565b5b602082029050602081019050919050565b600080fd5b6000610c11610c0c84610bcd565b610b02565b90508083825260208201905060208402830185811115610c3457610c33610bf9565b5b835b81811015610c7b57803567ffffffffffffffff811115610c5957610c58610a98565b5b808601610c668982610b9f565b85526020850194505050602081019050610c36565b5050509392505050565b600082601f830112610c9a57610c99610a98565b5b8135610caa848260208601610bfe565b91505092915050565b60008060408385031215610cca57610cc961077c565b5b600083013567ffffffffffffffff811115610ce857610ce7610781565b5b610cf485828601610b9f565b925050602083013567ffffffffffffffff811115610d1557610d14610781565b5b610d2185828601610c85565b9150509250929050565b60006020820190508181036000830152610d458184610849565b905092915050565b60008060408385031215610d6457610d6361077c565b5b6000610d72858286016107a7565b9250506020610d83858286016107a7565b9150509250929050565b7f4e487b7100000000000000000000000000000000000000000000000000000000600052603260045260246000fd5b7f4e487b7100000000000000000000000000000000000000000000000000000000600052602260045260246000fd5b60006002820490506001821680610e0357607f821691505b602082108103610e1657610e15610dbc565b5b50919050565b7f4e487b7100000000000000000000000000000000000000000000000000000000600052601160045260246000fd5b6000610e5682610786565b91507fffffffffffffffffffffffffffffffffffffffffffffffffffffffffffffffff8203610e8857610e87610e1c565b5b600182019050919050565b7f596f75206861766520616c726561647920766f7465642e000000000000000000600082015250565b6000610ec96017836107f4565b9150610ed482610e93565b602082019050919050565b60006020820190508181036000830152610ef881610ebc565b9050919050565b7f496e76616c69642063686f6963652e0000000000000000000000000000000000600082015250565b6000610f35600f836107f4565b9150610f4082610eff565b602082019050919050565b60006020820190508181036000830152610f6481610f28565b905091905056fea26469706673582212204a30e0b18384bebf29a92bff6df74d2cb07c193bfe23d18803bd7a3baa7fe35064736f6c634300080d0033",
  "immutableReferences": {},
  "source": "// SPDX-License-Identifier: MIT\r\npragma solidity >=0.5.0 < 0.9.0;\r\n\r\ncontract Polling {\r\n    struct Choice {\r\n        string name;\r\n        uint voteCount;\r\n    }\r\n\r\n    struct PollData {\r\n        string question;\r\n        Choice[] choices;\r\n        mapping(address => bool) hasVoted;\r\n    }\r\n\r\n    PollData[] public polls;\r\n\r\n    function createPoll(string memory question, string[] memory choiceNames) public {\r\n        // Create a new poll and push it to the polls array\r\n        PollData storage newPoll = polls.push();\r\n\r\n        newPoll.question = question;\r\n\r\n        for (uint i = 0; i < choiceNames.length; i++) {\r\n            newPoll.choices.push(Choice({\r\n                name: choiceNames[i],\r\n                voteCount: 0\r\n            }));\r\n        }\r\n    }\r\n\r\n    function vote(uint pollIndex, uint choiceIndex) public {\r\n        PollData storage poll = polls[pollIndex];\r\n        \r\n        require(!poll.hasVoted[msg.sender], \"You have already voted.\");\r\n        require(choiceIndex < poll.choices.length, \"Invalid choice.\");\r\n\r\n        poll.choices[choiceIndex].voteCount++;\r\n        poll.hasVoted[msg.sender] = true;\r\n    }\r\n\r\n    function getPoll(uint pollIndex) public view returns (string memory question, string[] memory choiceNames, uint[] memory voteCounts) {\r\n        PollData storage poll = polls[pollIndex];\r\n        \r\n        choiceNames = new string[](poll.choices.length);\r\n        voteCounts = new uint[](poll.choices.length);\r\n        \r\n        for (uint i = 0; i < poll.choices.length; i++) {\r\n            choiceNames[i] = poll.choices[i].name;\r\n            voteCounts[i] = poll.choices[i].voteCount;\r\n        }\r\n        return (poll.question, choiceNames, voteCounts);\r\n    }\r\n}",
  "sourcePath": "C:\\Users\\KIIT0001\\Desktop\\SmartContractPrac\\Personal_Projects\\Polling-System\\contracts\\Polling.sol",
  "compiler": {
    "name": "solc",
    "version": "0.8.13+commit.abaa5c0e.Emscripten.clang"
  },
  "schemaVersion": "3.4.16",
  "updatedAt": "2024-09-10T13:09:53.783Z",
  "networkType": "ethereum",
  "devdoc": {
    "kind": "dev",
    "methods": {},
    "version": 1
  },
  "userdoc": {
    "kind": "user",
    "methods": {},
    "version": 1
  }
}